:1000000012C00FC12BC02AC029C028C027C026C0DB
:1000100025C024C023C011C121C043C11FC01EC0C0
:100020001DC01CC01BC011241FBECFE5D4E0DEBF25
:10003000CDBF10E0A0E6B0E0E2EDF2E002C0059036
:100040000D92A236B107D9F710E0A2E6B0E001C0E8
:100050001D92A437B107E1F7A0D039C1D1CF5D9B84
:10006000FECF8CB95D9BFECF089580916E0090917C
:100070006F00019690936F0080936E008436910517
:1000800068F010926F0010926E0080916C00909159
:100090006D00019690936D0080936C0080916C00D0
:1000A00090916D00059710F480E0089510926D0016
:1000B00010926C0081E00895882321F481E0809300
:1000C0006B0008958B9A089580B382958F70809508
:1000D00081700895109263002CB180916700909117
:1000E0006800FC01EF58FF4F208301969093680051
:1000F000809367008091670090916800029721F4D7
:100100001092680010926700809162008F5F809368
:1001100062005F9B1DC02CB18091670090916800C8
:10012000FC01EF58FF4F2083019690936800809365
:1001300067008091670090916800029721F4109207
:10014000680010926700809162008F5F8093620068
:100150000895809162008823A9F0849B13C0AD9A12
:10016000809173008CB98091690090916A00029728
:1001700021F410926A00109269008091620081500F
:100180008093620080916200882319F481E080935B
:100190006B00089510926400089510BC84E389B93F
:1001A00088ED8AB98EE880BD92E091BB82B3806E03
:1001B00082BB88B3816C88BB95BF80E48BBF8ABF4C
:1001C00080E284BB789426B3B09B02C040E001C0BB
:1001D00040E280B390E080959095807E907033E00F
:1001E000959587953A95E1F78093700030E02095DA
:1001F0003095207C307096E0359527959A95E1F7FB
:10020000822B842B80937300A4DF80916300813064
:1002100009F460DF809164008130A9F610926400D7
:10022000D2CF1F920F920FB60F9211248B9A1BBE42
:100230000F900FBE0F901F9018951F920F920FB640
:100240000F9211242F938F939F93EF93FF938B9A89
:100250001092630080916700909168002CB1FC01BE
:10026000EF58FF4F208301969093680080936700BA
:100270008091670090916800029721F410926800C5
:1002800010926700809162008F5F80936200FF91FF
:10029000EF919F918F912F910F900FBE0F901F9014
:1002A00018951F920F920FB60F9211248F93809181
:1002B0006B00813031F480E48ABF8BBF10926B00F9
:1002C0008B988F910F900FBE0F901F901895F894F8
:0202D000FFCF5E
:0202D200000129
:00000001FF
