:1000000012C07DC12BC02AC029C028C027C026C06D
:1000100025C024C023C083C1ECC120C01FC01EC0A6
:100020001DC01CC01BC011241FBECFE5D4E0DEBF25
:10003000CDBF10E0A0E6B0E0EAE9F4E002C0059030
:100040000D92A636B107D9F710E0A6E6B0E001C0E0
:100050001D92A539B107E1F77DD01DC2D1CF80B384
:10006000869586958695809581700895681779079D
:1000700028F49C01261B370BB90108C08617970787
:1000800018F060E070E002C0681B790BCB010895A6
:1000900086B320B3209530E02076307095E035951A
:1000A00027959A95E1F780958C73822B0895559A40
:1000B0000895559808958AB780648ABF8BB7806485
:1000C0008BBF08958BB78F7B8BBF089585E487B96D
:1000D00087EC86B93699FECF24B135B1C901807C51
:1000E0009F7056E0969587955A95E1F780938A0020
:1000F0002F7320938B0084E487B987EC86B93699F7
:10010000FECF24B135B1C901807C9F7046E0969541
:1001100087954A95E1F780938C002F7320938D008B
:1001200083E487B987EC86B93699FECF24B135B11F
:100130003093930020939200C901807C9F7036E039
:10014000969587953A95E1F780938E002F732093CB
:100150008F000895DF92EF92FF920F931F93CF933A
:10016000DF938AB780648ABF8BB780648BBF10BC73
:1001700088E98AB986E689B986E880BD939A81E0E4
:1001800085BF82E081BBB99A88B38E6388BB82B396
:10019000806682BB789473E0E72EF12C68E0D62E5F
:1001A00003E4C1E0D0E020916A0030916B008091BF
:1001B0006C0090916D008217930728F4A901481BE9
:1001C000590BCA0106C02817390708F07FC0821BE7
:1001D000930B892B09F47AC080916200909163009F
:1001E000049709F073C0E0916C00F0916D00EA583B
:1001F000FF4F1081103801F51092630010926200D9
:10020000109261001092600043DF8093940010937D
:100210008A0020918A00982F9295969596959370D2
:10022000922B90938A0010938B0090918B008F7388
:10023000982B90938B0036C0E0916C00F0916D008C
:10024000EA58FF4F8081803CA1F440DF80918A0012
:10025000806C80938A0080918F00806C80938F00E7
:10026000D0936300C093620010926100109260000E
:1002700019C0E0916C00F0916D00EA58FF4FE081E9
:10028000E03489F4F0926300E09262001092610021
:1002900010926000E0938A00D0928B0010928C0044
:1002A00000938D00559A80916C0090916D0001969D
:1002B00090936D0080936C0080916C0090916D0024
:1002C000449721F410926D0010926C0080916F00A1
:1002D0009091700001969093700080936F005BE0A6
:1002E000883B950711F4C1985ECF8057974109F07C
:1002F0005ACFC19A1092700010926F0054CF1F9283
:100300000F920FB60F9211248F938C9A8BB78F7B1D
:100310008BBF8F910F900FBE0F901F9018951F925B
:100320000F920FB60F9211242F933F934F935F9329
:100330008F939F93EF93FF9380916A0090916B004E
:100340002CB1FC01EA58FF4F2083019690936B007B
:1003500080936A0080916A0090916B00449720F02E
:1003600010926B0010926A005F9B18C080916A0027
:1003700090916B002CB1FC01EA58FF4F208301964D
:1003800090936B0080936A0080916A0090916B005B
:10039000449720F010926B0010926A0020916A003E
:1003A00030916B0080916C0090916D0082179307E3
:1003B00028F4A901481B590BCA0105C028173907A1
:1003C00020F4821B930B0A9738F48C988AB78064C8
:1003D0008ABF8BB780648BBFFF91EF919F918F9104
:1003E0005F914F913F912F910F900FBE0F901F90F3
:1003F00018951F920F920FB60F9211242F938F937F
:100400009F93EF93FF93839B3CC0809160009091FA
:100410006100FC01E657FF4F20812CB901969093B3
:100420006100809360008091620090916300892B4D
:1004300039F48091600090916100029711F50CC031
:100440008091620090916300019749F4809160006F
:10045000909161000697A9F484E090E00DC080912E
:10046000620090916300039761F480916000909125
:1004700061008430910529F49093630080936200B9
:100480005598FF91EF919F918F912F910F900FBEF3
:0A0490000F901F901895F894FFCF0D
:06049A000800040000014F
:00000001FF
