:100000000C9446000C9413020C9465000C9465004B
:100010000C9465000C9465000C9465000C946500CC
:100020000C9465000C9465000C9465000C946500BC
:100030000C9465000C9465000C9465000C946500AC
:100040000C9465000C9465000C9465000C9465009C
:100050000C941F020C94E7020C9465000C9465004C
:100060000C9465000C9465000C9465000C9465007C
:100070000C9465000C9465000C9465000C9465006C
:100080000C9465000C9465000C94650011241FBE4F
:10009000CFEFD0E4DEBFCDBF11E0A0E0B1E0E4E5FA
:1000A000F7E000E00BBF02C007900D92A830B10747
:1000B000D9F711E0A8E0B1E001C01D92A435B10765
:1000C000E1F70E946D010C94A8030C94000089B123
:1000D000869586958695809581700895681779072D
:1000E00028F49C01261B370BB90108C08617970717
:1000F00018F060E070E002C0681B790BCB01089536
:1001000086B180950895E1ECF0E080818062808383
:100110000895E1ECF0E080818F7D80830895E09A7E
:10012000E89A0895E898089580911A0190911B012A
:10013000892B19F4A4E0B0E002C0A0E0B0E0FD011A
:10014000EE0FFF1FE15EFE4F20813181C901807EED
:10015000937035E0969587953A95E1F78093450140
:100160002F7120934601FD013196EE0FFF1FE15ED6
:10017000FE4F20813181C901807E937075E0969594
:1001800087957A95E1F7809347012F712093480175
:100190001296FD01EE0FFF1FE15EFE4F20813181BF
:1001A000C901807E937055E0969587955A95E1F741
:1001B000809349012F7120934A011196AA0FBB1F0A
:1001C000A15EBE4F2D913C91C901807E937035E0B8
:1001D000969587953A95E1F780934B012F7120937F
:1001E0004C010895B59A4091860050918700509334
:1001F000300140932F0180914F019091500184175D
:10020000950728F49A01281B390BC90104C0809571
:100210009095840F951F90931E0180931D018091EE
:100220001D0190911E0137E181379307B0F01092C4
:1002300052011092510180911A0190911B01049773
:1002400028F010921B0110921A0142C084E090E045
:1002500090931B0180931A013BC020915101309172
:10026000520124303105A0F59695879563E0883ECC
:10027000960728F410921E0110921D0106C0885E98
:10028000934090931E0180931D012115310551F477
:1002900080911D0190911E018D5B924010F05D9A3E
:1002A00001C05D98E0911A01F0911B01E20FF31F6C
:1002B000EE0FFF1FE15EFE4F80911D0190911E0128
:1002C000918380832F5F3F4F3093520120935101E0
:1002D0005093500140934F010895CF92DF92EF92D7
:1002E000FF920F931F93CF93DF93E09AE89A1092B7
:1002F000C50088E98093C10089E18093C40086E04D
:100300008093C2005B9A81E08093690082E28AB99F
:100310008FEF88B982E480938100789401E010E047
:10032000C2E0D0E0B3E6CB2EA0E4DA2EF0EAEF2E66
:10033000E0E8FE2EB59B02C00E94F200809102010F
:1003400090910301059739F5109203011092020173
:10035000109201011092000126B1209520935301C3
:1003600080911901882319F4F092450102C010927E
:10037000450190914501822F829586958770892B42
:1003800080934501E0924601809146012F71282B10
:100390002093460142C0809102019091030106978B
:1003A000E9F4D0930301C09302011092010110926D
:1003B000000186B1809580935301809119018823B3
:1003C00019F4D092450102C0109245018091450177
:1003D000886080934501C09246011FC08091020150
:1003E00090910301099709F0A5CF109303010093A1
:1003F000020110920101109200010E94940080916C
:100400001901882329F480914501806C809345016E
:1004100080914C01806E80934C018091C10080627C
:100420008093C10087CF1F920F920FB60F921124B5
:10043000549AE8980F900FBE0F901F9018951F9236
:100440000F920FB60F920BB60F9211242F933F937A
:100450004F935F938F939F93EF93FF934091C600C9
:10046000842F807CD9F0282F30E080910401909176
:1004700005012817390729F0109218011092170169
:1004800009C080911701909118010196909318016D
:1004900080931701309305012093040120910C01F2
:1004A00030910D0180910C0190910D01FC01EF5CE8
:1004B000FE4F4083019690930D0180930C01809133
:1004C0000C0190910D01449720F010920D011092B3
:1004D0000C01842F90E0807E90708038910539F473
:1004E00030930F0120930E0184E090E02BC0803AFE
:1004F000910549F480910201909103010497C9F19B
:1005000085E090E02FC08034910539F430930F01DD
:1005100020930E0187E090E015C08036910549F4E4
:100520008091020190910301079719F186E090E014
:1005300019C0803C910559F430930F0120930E01AE
:1005400088E090E0909303018093020112C0803E06
:100550009105A1F48091020190910301089749F05F
:1005600089E090E0909303018093020110921901B9
:1005700005C08091C10080628093C10020910C0170
:1005800030910D0180910E0190910F018217930718
:1005900028F4A901481B590BCA0105C028173907BF
:1005A00020F4821B930B0A9718F45498E09AE89A67
:1005B000FF91EF919F918F915F914F913F912F917B
:1005C0000F900BBE0F900FBE0F901F9018951F92AB
:1005D0000F920FB60F920BB60F9211242F933F93E9
:1005E0008F939F93EF93FF934B9BA5C08091020144
:1005F00090910301049791F480910E0190910F0165
:10060000FC01EF5CFE4FE081019690930F01809317
:100610000E01E5FF3FC085E090E02FC08091020110
:1006200090910301079791F480910E0190910F0131
:10063000FC01EF5CFE4FE081019690930F018093E7
:100640000E01E5FF27C086E090E017C0809102010F
:10065000909103010897B1F580910E0190910F01DF
:10066000FC01EF5CFE4FE081019690930F018093B7
:100670000E01E5FF0FC089E090E0909303018093A5
:10068000020181E080931901EF718091C1008F7D9B
:100690008093C100E093C60080910E0190910F01FC
:1006A000449720F010920F0110920E0120910C013E
:1006B00030910D0180910E0190910F01281739079B
:1006C000D1F534C08091000190910101FC01EB5BF8
:1006D000FE4F20812093C6000196909301018093E4
:1006E00000018091020190910301892B99F0809182
:1006F000020190910301019739F4809100019091DA
:1007000001010897C1F40CC080910201909103018E
:10071000029789F48091000190910101029759F4A8
:1007200083E090E090930301809302018091C100E7
:100730008F7D8093C100FF91EF919F918F913F91A9
:100740002F910F900BBE0F900FBE0F901F9018951A
:04075000F894FFCF4B
:0807540008000300030000018E
:00000001FF
