:1000000012C024C023C022C021C020C01FC01EC0F7
:100010001DC01CC01BC01AC019C018C017C016C014
:1000200015C014C013C011241FBECFE5D4E0DEBF3D
:10003000CDBF10E0A0E6B0E0EAEBF2E002C0059030
:100040000D92A836B107D9F702D035C1D9CF82E0D9
:1000500087BB8EBD62E040E951E018BA10926100A2
:10006000109260001092630010926200109265007E
:10007000109264001092670010926600999BFECF68
:100080001DBC1CBC8CB59DB584369105D8F33FE0F2
:1000900083B38F703823282F80FD0CC080916000BF
:1000A00090916100892B31F48CB59DB590936100DE
:1000B0008093600021FD0CC08091620090916300EC
:1000C000892B31F48CB59DB59093630080936200C9
:1000D00022FD0CC08091640090916500892B31F461
:1000E0008CB59DB5909365008093640023FD0CC092
:1000F0008091660090916700892B31F48CB59DB595
:100100009093670080936600332311F6809160001E
:1001100090916100885E934028F4109261001092E3
:1001200060000AC08091600090916100885E9340F9
:1001300090936100809360008091620090916300D1
:10014000885E934028F410926300109262000AC007
:100150008091620090916300885E93409093630069
:10016000809362008091640090916500885E934066
:1001700028F410926500109264000AC08091640017
:1001800090916500885E9340909365008093640031
:100190008091660090916700885E934028F41092E9
:1001A0006700109266000AC0809166009091670017
:1001B000885E9340909367008093660068BB1DBC87
:1001C0001CBC5BBD4ABD88B7806188BF08B604FE11
:1001D000FDCF18BA1DBC1CBC8091600090916100DD
:1001E000885A9D4F9BBD8ABD88B7806188BF08B67D
:1001F00004FEFDCF68BB1DBC1CBC5BBD4ABD88B7FF
:10020000806188BF08B604FEFDCF18BA1DBC1CBCB7
:100210008091620090916300885A9D4F9BBD8ABD7A
:1002200088B7806188BF08B604FEFDCF68BB1DBCDF
:100230001CBC5BBD4ABD88B7806188BF08B604FEA0
:10024000FDCF18BA1DBC1CBC809164009091650064
:10025000885A9D4F9BBD8ABD88B7806188BF08B60C
:1002600004FEFDCF68BB1DBC1CBC5BBD4ABD88B78E
:10027000806188BF08B604FEFDCF18BA1DBC1CBC47
:100280008091660090916700885A9D4F9BBD8ABD02
:1002900088B7806188BF08B604FEFDCF68BB1DBC6F
:1002A0001CBC5BBD4ABD88B7806188BF08B604FE30
:0A02B000FDCF18BAD2CEF894FFCFAC
:0802BA00E80314054006D0071B
:00000001FF
