:100000000EC01DC01CC01BC01AC019C018C017C02C
:1000100016C015C014C013C012C011C010C01124E6
:100020001FBECFE5D2E0DEBFCDBF10E0A0E6B0E05E
:1000300001C01D92A636B107E1F729D045C0E0CF37
:100040008091640090916500019690936500809383
:1000500064008051974268F010926500109264002D
:100060008091620090916300019690936300809369
:1000700062008091620090916300059710F480E027
:100080000895109263001092620081E0089581E06B
:1000900087BB82E48ABD83E083BF82E287B98EE1B9
:1000A00089BD36EC21E03699FECF85B136B985B1F0
:1000B0008A3010F417BA01C027BB90E00A979595D3
:0C00C0008795825E89BDEFCFF894FFCFDA
:00000001FF
