:100000000C9446000C9465000C94E9010C94650076
:100010000C9465000C9465000C9465000C946500CC
:100020000C9465000C9465000C9465000C946500BC
:100030000C9465000C9465000C9465000C946500AC
:100040000C9465000C9465000C9465000C9465009C
:100050000C94F5010C9465000C942F020C9465002F
:100060000C9465000C9465000C9465000C9465007C
:100070000C9465000C9465000C9465000C9465006C
:100080000C9465000C9465000C94650011241FBE4F
:10009000CFEFD0E4DEBFCDBF11E0A0E0B1E0E6E7F6
:1000A000F4E000E00BBF02C007900D92A230B10750
:1000B000D9F711E0A2E0B1E001C01D92AE31B10765
:1000C000E1F70E941A010C9439020C940000982F59
:1000D0008091C00085FFFCCF9093C6008091C00046
:1000E00085FFFCCF089580910E0190910F0101963C
:1000F00090930F0180930E01885E934068F01092F8
:100100000F0110920E0180910C0190910D0101964A
:1001100090930D0180930C0180910C0190910D0141
:100120008035910510F480E0089510920D01109231
:100130000C0181E00895882321F481E080930B0174
:100140000895549A089589B18695869586958095E7
:1001500081700895109203012091C60080910701DB
:1001600090910801FC01EF5EFE4F20830196909371
:10017000080180930701809107019091080102977F
:1001800021F41092080110920701809102018F5F03
:10019000809302018091C00087FF1EC02091C6009D
:1001A0008091070190910801FC01EF5EFE4F2083D2
:1001B0000196909308018093070180910701909127
:1001C0000801029721F41092080110920701809112
:1001D00002018F5F809302011092020108958091C5
:1001E00002018830E0F48091C00086FD18C0459A75
:1001F000E0910201F0E0ED5EFE4F80818093C60049
:100200008091090190910A01029721F410920A014C
:1002100010920901809102018F5F80930201809109
:100220000201883019F481E080930B010895109247
:10023000040108951092C50084E38093C40088E10E
:100240008093C10086E08093C20082E48AB988E08E
:100250008BB98093690082E08CBB8DBB78948FEF63
:1002600088B95498E0E870E447EC61E452E496B150
:100270009095E093130120911301892F869586951F
:10028000822B809313011092140120911401892F65
:100290008370822B80931401903111F45E9A01C017
:1002A0005E988091C6008091C00087FFFCCF80914E
:1002B000C00080688093C0008091C00085FFFCCFA3
:1002C000809113018093C6008091C00085FFFCCF10
:1002D000809114018093C6008091C00085FFFCCFFF
:1002E000809115018093C6008091C00085FFFCCFEE
:1002F000809116018093C6008091C00085FFFCCFDD
:10030000809117018093C6008091C00085FFFCCFCB
:10031000809118018093C6008091C00085FFFCCFBA
:10032000809119018093C6008091C00085FFFCCFA9
:1003300080911A018093C60070937C0040937A00EC
:1003400080917A0086FDFCCF209178003091790071
:10035000C901807C9F70A6E096958795AA95E1F7E4
:10036000809315012F732093160160937C004093B6
:100370007A0080917A0086FDFCCF20917800309140
:100380007900C901807C9F70F6E096958795FA9573
:10039000E1F7809317012F732093180150937C008D
:1003A00040937A0080917A0086FDFCCF20917800FE
:1003B00030917900C901807C9F7036E096958795D1
:1003C0003A95E1F7809319012F73205C20931A016D
:1003D0004ECF1F920F920FB60F921124549A1DBA4E
:1003E0000F900FBE0F901F9018951F920F920FB68F
:1003F0000F920BB60F9211242F938F939F93EF932D
:10040000FF93549A10920301809107019091080183
:100410002091C600FC01EF5EFE4F20830196909371
:1004200008018093070180910701909108010297CC
:1004300021F4109208011092070180910201883086
:1004400011F410920201FF91EF919F918F912F91E2
:100450000F900BBE0F900FBE0F901F9018951F921C
:100460000F920FB60F9211240F900FBE0F901F9096
:060470001895F894FFCF7F
:02047600000183
:00000001FF
