:100000000C9446000C9465000C94BD000C946500A3
:100010000C9465000C9465000C9465000C946500CC
:100020000C9465000C9465000C9465000C946500BC
:100030000C9465000C94C7000C9465000C9465004A
:100040000C9465000C9465000C9465000C9465009C
:100050000C9465000C9465000C9465000C9465008C
:100060000C9465000C9465000C9465000C9465007C
:100070000C9465000C9465000C9465000C9465006C
:100080000C9465000C9465000C94650011241FBE4F
:10009000CFEFD0E4DEBFCDBF11E0A0E0B1E0EEE2F3
:1000A000F2E000E00BBF02C007900D92A030B10754
:1000B000D9F711E0A0E0B1E001C01D92AC36B10764
:1000C000E1F70E9467000C9415010C94000022E0F7
:1000D0002093C0001092C50080E18093C40088E0A6
:1000E0008093C10088EE93E090938900809388000C
:1000F00083E0809380008AE18093810020936F00E9
:1001000082E48AB981E081B97894209107014B9B00
:10011000FECF109285001092840080910101880F1B
:10012000809301019091010189B18170892B8093A5
:100130000101809100018F5F809300014B99FECFF8
:1001400080918100826080938100809100018830DD
:10015000F1F622B9E0910201F0E080910101E85F3F
:10016000FE4F8083109201011092000180910201E4
:100170008F5F809302012F5FCACF1F920F920FB63D
:100180000F9211240F900FBE0F901F9018951F9281
:100190000F920FB60F920BB60F9211248F939F936D
:1001A000EF93FF931092030180918100887F8093E9
:1001B000810010928500109284001092000110922C
:1001C00001011092070110C080910301E82FF0E0B7
:1001D000E85FFE4F90819093C6008F5F809303018C
:1001E0008091C00085FFFCCF9091030180910201B6
:1001F000981750F38091C00085FFFCCF8DE080936D
:10020000C6008091C00085FFFCCF8AE08093C600C5
:1002100010920201FF91EF919F918F910F900BBE71
:0E0220000F900FBE0F901F901895F894FFCF0F
:00000001FF
