:1000000010C02AC029C028C027C0A2C025C024C053
:1000100023C022C021C020C01FC01EC01DC01CC0E4
:100020001BC011241FBECFE5D1E0DEBFCDBF10E065
:10003000A0E6B0E0ECEEF1E002C005900D92AA3629
:10004000B107D9F710E0AAE6B0E001C01D92A138CF
:10005000B107E1F702D0C8C0D3CF0F931F93CF935E
:10006000DF9381E08EBD80E28CB9789420916800A6
:100070002ABB0091690010916700B0916600A091C1
:100080006500F0916400E0916300709162006091FE
:100090006100309160004AE357E050936F00409355
:1000A0006E00C0916E00D0916F00CD56D74010F019
:1000B0000ABB49C0C0916E00D0916F00C950D740B3
:1000C00010F02ABB40C0C0916E00D0916F00C55A9D
:1000D000D64010F01ABB37C0C0916E00D0916F00AF
:1000E000C154D64010F0BABB2EC0C0916E00D09162
:1000F0006F00CD5DD54010F0AABB25C0C0916E0049
:10010000D0916F00C957D54010F0FABB1CC0C09108
:100110006E00D0916F00C551D54010F0EABB13C0FE
:10012000C0916E00D0916F00C15BD44010F07ABBDB
:100130000AC0C0916E00D0916F00CD54D44010F031
:100140006ABB01C03ABB8091710080937200A5CF59
:100150001F920F920FB60F9211242F933F938F93FC
:100160009F930EB406FE09C08CB59DB590936D00AB
:1001700080936C0081E08EBD2EC081E48EBD8CB575
:100180009DB590936B0080936A0020916A00309136
:100190006B0080916C0090916D008217930758F46A
:1001A00080916A0090916B0020916C0030916D00FD
:1001B000821B930B0CC080916C0090916D0020917C
:1001C0006A0030916B0080959095820F931F9093F9
:1001D0006F0080936E009F918F913F912F910F90B0
:0C01E0000FBE0F901F901895F894FFCFF1
:0A01EC0077116B3B1D3E7C137F3F33
:00000001FF
