:1000000012C003C22BC02AC029C028C027C026C0E6
:1000100025C024C023C009C2CBC220C01FC01EC03F
:100020001DC01CC01BC011241FBECFE5D4E0DEBF25
:10003000CDBF10E0A0E6B0E0ECE2F7E002C0059032
:100040000D92A836B107D9F710E0A8E6B0E001C0DC
:100050001D92A13AB107E1F713D166C3D1CF80B3A6
:10006000869586958695809581700895681779079D
:1000700028F49C01261B370BB90108C08617970787
:1000800018F060E070E002C0681B790BCB010895A6
:1000900086B320B3209530E02076307095E035951A
:1000A00027959A95E1F7809590E08C739070282BB6
:1000B000392BC9010895559A0895559808958AB71E
:1000C00080648ABF8BB780648BBF08958BB78F7BAA
:1000D0008BBF089585E487B987EC86B93699FECF42
:1000E00024B135B1C901807E937055E0969587950E
:1000F0005A95E1F7809395002F712093960084E440
:1001000087B987EC86B93699FECF24B135B1C901DC
:10011000807E937045E0969587954A95E1F78093A8
:1001200097002F712093980083E487B987EC86B9F4
:100130003699FECF24B135B130939E0020939D00B7
:10014000C901807E937035E0969587953A95E1F7E1
:10015000809399002F7120939A00089580916C00EC
:1001600090916D00049748F420916C0030916D00DF
:1001700084E190E0821B930B05C080916C0090910C
:100180006D00049790937B0080937A0080917700B4
:1001900090917800892B49F4109295001092960066
:1001A000109297001092980024C080917A0090914C
:1001B0007B00FC01EF57FF4F2081209395000196B3
:1001C000FC01EF57FF4F2081209396000196FC0120
:1001D000EF57FF4F2081209397000196FC01EF57C6
:1001E000FF4F208120939800019690937B0080938D
:1001F0007A00809195004091960050E04F715070C8
:10020000485F5F4F90E08F719070F5E0880F991F05
:10021000FA95E1F7480F591F50937F0040937E00F5
:10022000809197002091980030E02F7130702D5F01
:100230003F4F90E08F719070E5E0880F991FEA952D
:10024000E1F7280F391F30937D0020937C00CA010D
:1002500075E0969587957A95E1F7805C8093950097
:100260004F7140939600C90165E0969587956A9510
:10027000E1F7809397002F71205A209398000895FA
:10028000CF92DF92EF92FF920F931F93CF93DF9362
:100290008AB780648ABF8BB780648BBF10BC88E943
:1002A0008AB986E689B986E880BD939A81E085BFE0
:1002B00082E081BBB99A88B38E6388BB82B38066C3
:1002C00082BB789420EAC22E90E8D92E01E010E09B
:1002D000C2E0D0E083E6E82EB0E4FB2E809162001D
:1002E000909163000597B1F510926300109262003F
:1002F0001092610010926000CBDEAC019093A000E0
:1003000080939F0080917900882319F4D092950002
:1003100002C01092950020919500CA0180709C77D0
:10032000892F86958695282B20939500CA01807E7B
:100330009370A5E096958795AA95E1F7809396002E
:10034000C092970090919700842F8F71892B809392
:10035000970041C080916200909163000697F1F48C
:10036000D0936300C093620010926100109260000D
:100370008FDE9093A00080939F0080917900882366
:1003800019F4F092950002C01092950080919500AA
:10039000886080939500E09296001DC08091620075
:1003A000909163000997C1F4109363000093620079
:1003B00010926100109260008DDE80917900882398
:1003C00029F480919500806C8093950080919A002B
:1003D000806E80939A00559A80917100909172007E
:1003E000019690937200809371002BE0883B9207F6
:1003F00011F4C19873CF8057974109F06FCFC19A1C
:10040000109272001092710069CF1F920F920FB676
:100410000F9211248F938C9A8BB78F7B8BBF8F9108
:100420000F900FBE0F901F9018951F920F920FB64E
:100430000F9211242F933F934F935F938F939F932A
:10044000EF93FF934CB1842F807CD9F0282F30E0BC
:1004500080916400909165002817390729F0109267
:1004600078001092770009C0809177009091780011
:1004700001969093780080937700309365002093E5
:10048000640020916C0030916D0080916C0090911F
:100490006D00FC01EF57FF4F4083019690936D0074
:1004A00080936C0080916C0090916D00449720F0D7
:1004B00010926D0010926C00842F90E0807E9070FE
:1004C0008038910539F430936F0020936E0084E0FA
:1004D00090E02BC0803A910549F4809162009091A0
:1004E00063000497C9F185E090E02FC08034910546
:1004F00039F430936F0020936E0087E090E015C0D0
:100500008036910549F480916200909163000797CD
:1005100019F186E090E019C0803C910559F43093C0
:100520006F0020936E0088E090E0909363008093CA
:10053000620012C0803E910581F48091620090912A
:100540006300089749F089E090E0909363008093FE
:1005500062001092790001C0559A20916C00309190
:100560006D0080916E0090916F008217930728F4C0
:10057000A901481B590BCA0105C02817390720F4E7
:10058000821B930B0A9738F48C988AB780648ABFD1
:100590008BB780648BBFFF91EF919F918F915F919B
:1005A0004F913F912F910F900FBE0F901F90189574
:1005B0001F920F920FB60F9211242F933F938F9398
:1005C0009F93EF93FF93839BA4C0809162009091CF
:1005D0006300049791F480916E0090916F00FC018C
:1005E000EF57FF4FE081019690936F0080936E006C
:1005F000E5FF3BC085E090E02FC0809162009091C4
:100600006300079791F480916E0090916F00FC0158
:10061000EF57FF4FE081019690936F0080936E003B
:10062000E5FF23C086E090E017C0809162009091C2
:100630006300089791F580916E0090916F00FC0126
:10064000EF57FF4FE081019690936F0080936E000B
:10065000E5FF0BC089E090E0909363008093620017
:1006600081E080937900EF715598ECB980916E002C
:1006700090916F00449720F010926F0010926E00DE
:1006800020916C0030916D0080916E0090916F0010
:100690002817390709F03DC03BC080916000909158
:1006A0006100FC01EB56FF4F20812CB9019690931D
:1006B0006100809360008091620090916300892BBB
:1006C00041F480916000909161008330910509F5BB
:1006D0001BC08091620090916300019739F4809172
:1006E0006000909161000697A1F40CC080916200B7
:1006F00090916300029769F480916000909161008D
:10070000029739F483E090E0909363008093620055
:100710005598FF91EF919F918F913F912F910F905D
:0C0720000FBE0F901F901895F894FFCFAB
:08072C000800030003000001B6
:00000001FF
