:100000000C9446000C9465000C9476010C946500E9
:100010000C9465000C9465000C9465000C946500CC
:100020000C9465000C9465000C9465000C946500BC
:100030000C9465000C9465000C9465000C946500AC
:100040000C9465000C9465000C9465000C9465009C
:100050000C9482010C9465000C94BC010C94650016
:100060000C9465000C9465000C9465000C9465007C
:100070000C9465000C9465000C9465000C9465006C
:100080000C9465000C9465000C94650011241FBE4F
:10009000CFEFD0E4DEBFCDBF11E0A0E0B1E0E8EAF1
:1000A000F3E000E00BBF02C007900D92A230B10751
:1000B000D9F711E0A2E0B1E001C01D92AC31B10767
:1000C000E1F70E941A010C94D2010C940000982FC1
:1000D0008091C00085FFFCCF9093C6008091C00046
:1000E00085FFFCCF089580910E0190910F0101963C
:1000F00090930F0180930E01885E934068F01092F8
:100100000F0110920E0180910C0190910D0101964A
:1001100090930D0180930C0180910C0190910D0141
:100120008035910510F480E0089510920D01109231
:100130000C0181E00895882321F481E080930B0174
:100140000895549A089589B18695869586958095E7
:1001500081700895109203012091C60080910701DB
:1001600090910801FC01EF5EFE4F20830196909371
:10017000080180930701809107019091080102977F
:1001800021F41092080110920701809102018F5F03
:10019000809302018091C00087FF1EC02091C6009D
:1001A0008091070190910801FC01EF5EFE4F2083D2
:1001B0000196909308018093070180910701909127
:1001C0000801029721F41092080110920701809112
:1001D00002018F5F809302011092020108958091C5
:1001E00002018830E0F48091C00086FD18C0459A75
:1001F000E0910201F0E0ED5EFE4F80818093C60049
:100200008091090190910A01029721F410920A014C
:1002100010920901809102018F5F80930201809109
:100220000201883019F481E080930B010895109247
:1002300004010895EF92FF920F931F931092C5004F
:1002400084E38093C40088ED8093C1008EE08093A6
:10025000C20082E48AB988E08BB98093690082E0A9
:100260008CBB8DBB78948FEF88B990E8E92E1AE2A9
:1002700080E2F82E00E40E947300811189B126B15A
:10028000209520931B01E092130190911301822F7E
:1002900086958695892B8093130110921401909175
:1002A0001401822F8370892B809314011092150101
:1002B000109216011093170110931801F092190172
:1002C00000931A01203111F45E9A01C05E980E94D9
:1002D000EF0080910301813011F40E94AA00809107
:1002E0000401813041F610920401C5CF1F920F9294
:1002F0000FB60F921124549A1DBA0F900FBE0F9093
:100300001F9018951F920F920FB60F920BB60F9277
:1003100011242F938F939F93EF93FF93549A1092EE
:10032000030180910701909108012091C600FC0112
:10033000EF5EFE4F208301969093080180930701A2
:100340008091070190910801029721F41092080111
:100350001092070180910201883010F01092020182
:10036000FF91EF919F918F912F910F900BBE0F9066
:100370000FBE0F901F9018951F920F920FB60F92FD
:1003800011248F9380910B01813031F482E08CBB7A
:100390008DBB10920B0154988F910F900FBE0F9050
:0803A0001F901895F894FFCF9F
:0203A800000152
:00000001FF
