:100000000C9446000C94A6010C9465000C946500B9
:100010000C9465000C9465000C9465000C946500CC
:100020000C9465000C9465000C9465000C946500BC
:100030000C9465000C9465000C9465000C946500AC
:100040000C9465000C9465000C9465000C9465009C
:100050000C94B2010C9420020C9465000C94650081
:100060000C9465000C9465000C9465000C9465007C
:100070000C9465000C9465000C9465000C9465006C
:100080000C9465000C9465000C94650011241FBE4F
:10009000CFEFD0E4DEBFCDBF11E0A0E0B1E0EAEFEA
:1000A000F4E000E00BBF02C007900D92A630B1074C
:1000B000D9F711E0A6E0B1E001C01D92A533B10768
:1000C000E1F70E94EA000C947B020C94000089B1D5
:1000D000869586958695809581700895681779072D
:1000E00028F49C01261B370BB90108C08617970717
:1000F00018F060E070E002C0681B790BCB01089536
:1001000086B180950895E1ECF0E080818062808383
:100110000895E1ECF0E080818F7D80830895E09A7E
:10012000E89A0895E898089585E480937C0087EC28
:1001300080937A0080917A0086FDFCCF2091780030
:1001400030917900C901807C9F7056E09695879523
:100150005A95E1F780932A012F7320932B0184E4B1
:1001600080937C0087EC80937A0080917A0086FDF2
:10017000FCCF2091780030917900C901807C9F707C
:1001800046E0969587954A95E1F780932C012F7369
:1001900020932D0183E480937C0087EC80937A0088
:1001A00080917A0086FDFCCF209178003091790013
:1001B0003093330120933201C901807C9F7036E077
:1001C000969587953A95E1F780932E012F732093AA
:1001D0002F010895EF92FF920F931F93CF93DF9318
:1001E000E09AE89A1092C50088E98093C10086E6FB
:1001F0008093C40086E08093C2005B9A81E0809384
:10020000690082E48AB98FEF88B9789403E010E03E
:1002100078E0E72E63E4F62EC1E0D0E020910A01F9
:1002200030910B0180910C0190910D018217930781
:1002300028F4A901481B590BCA0105C02817390722
:1002400068F7821B930B892B49F3809102019091EF
:100250000301049719F7E0910C01F0910D01EA5E9A
:10026000FE4FE081E03809F510920301109202017F
:10027000109201011092000196B190959093340173
:10028000E0932A0120912A01892F829586958695EF
:100290008370822B80932A01E0932B0180912B01A4
:1002A0009F73982B90932B0137C0E0910C01F09134
:1002B0000D01EA5EFE4F8081803CA9F40E9494000B
:1002C00080912A01806C80932A0180912F01806C9B
:1002D00080932F01D0930301C0930201109201017A
:1002E0001092000119C0E0910C01F0910D01EA5E3D
:1002F000FE4FE081E034A9F4109303010093020162
:100300001092010110920001E0932A01E0922B016A
:1003100010922C01F0922D018091C1008062809397
:10032000C10080910C0190910D01019690930D01F7
:1003300080930C0180910C0190910D01449709F07C
:100340006DCF10920D0110920C0168CF1F920F9289
:100350000FB60F921124549AE8980F900FBE0F9089
:100360001F9018951F920F920FB60F920BB60F9217
:1003700011242F933F934F935F938F939F93EF930A
:10038000FF9380910A0190910B012091C600FC011E
:10039000EA5EFE4F2083019690930B0180930A0141
:1003A00080910A0190910B01449720F010920B016B
:1003B00010920A018091C00087FF19C080910A0144
:1003C00090910B012091C600FC01EA5EFE4F208354
:1003D000019690930B0180930A0180910A019091FC
:1003E0000B01449720F010920B0110920A0120910A
:1003F0000A0130910B0180910C0190910D0182173F
:10040000930728F4A901481B590BCA0105C02817F6
:10041000390720F4821B930B0A9718F45498E09A3A
:10042000E89AFF91EF919F918F915F914F913F914A
:100430002F910F900BBE0F900FBE0F901F9018952D
:100440001F920F920FB60F920BB60F9211242F939B
:100450008F939F93EF93FF934B9B41C0809100013B
:1004600090910101FC01E65DFE4F20812093C600C2
:100470000196909301018093000180910201909177
:100480000301892B39F480910001909101010297B9
:1004900031F50CC08091020190910301019749F45C
:1004A00080910001909101010697C9F484E090E0E9
:1004B0000DC08091020190910301039781F4809116
:1004C0000001909101018430910549F4909303015A
:1004D000809302018091C1008F7D8093C100FF91C4
:1004E000EF919F918F912F910F900BBE0F900FBEA8
:0A04F0000F901F901895F894FFCFAD
:0604FA00080004000001EF
:00000001FF
