:100000000EC028C027C026C025C024C023C022C0DF
:1000100021C020C01FC01EC01DC01CC01BC0112499
:100020001FBECFE5D2E0DEBFCDBF10E0A0E6B0E05E
:10003000E6EAF1E002C005900D92A236B107D9F7C9
:1000400010E0A2E6B0E001C01D92A436B107E1F7CE
:1000500002D0A7C0D5CF87E087BB81E083BF84E60D
:1000600080BF8FEF8DBD63E943E951E02BE933E0B9
:10007000B39BFECF12BE10926300109262000DC0BF
:1000800082B78031E8F312BE8091620090916300E4
:1000900001969093630080936200B399F1CF8091B1
:1000A0006200909163008D59924048F18091600008
:1000B000909161000897E9F4B99A8091620090915B
:1000C00063008C59934020F03093630020936200CA
:1000D00080916200909163008C59924090936300EC
:1000E0008093620080916200909163008EBDC09AFF
:1000F000BFCF1EBCB99888B38A7F88BB48C08091A7
:100100006200909163008259924030F580916000C6
:10011000909161000297A9F4B99A80916200909140
:1001200063008359914020F4509363004093620030
:100130008091620090916300762F781B7EBDC29AF9
:1001400097CF1EBCB99888B38A7F88BB8091600026
:1001500090916100019720C01EBCB99888B38A7F36
:1001600088BB8091600090916100069748F0809173
:10017000600090916100019790936100809360000E
:100180008091600090916100059708F071CF809197
:1001900060009091610001969093610080936000EF
:0601A00067CFF894FFCFC9
:0201A600050052
:00000001FF
