:1000000012C021C020C01FC01EC026C01CC01BC003
:100010001AC019C018C017C016C015C014C013C02C
:1000200012C011C010C011241FBECFE5D4E0DEBF46
:10003000CDBF10E0A0E6B0E001C01D92AA37B10725
:10004000E1F702D099C0DCCF82E48EBD80E289BFA7
:100050008EE787BB7894FFCF1F920F920FB60F9257
:1000600011242F933F938F939F9386B597B59093C9
:1000700061008093600080916A0088BB8091660077
:10008000882311F488E028C080916600813011F443
:1000900080E122C080916600823011F480E21CC0B1
:1000A00080916600833011F480E416C08091660070
:1000B000843021F080916600853019F410926A0036
:1000C0000DC080916600863011F482E005C08091F9
:1000D0006600873019F484E080936A002091600004
:1000E00030916100809162009091630082179307C4
:1000F00058F48091600090916100209162003091ED
:100100006300821B930B0CC080916200909163008E
:10011000209160003091610080959095820F931F2F
:1001200090936500809364008091640090916500D5
:10013000895B9B4058F010926600809167008F5F4A
:100140008093670081E08093690005C0809166001C
:100150008F5F809366008091600090916100909322
:100160006300809362009F918F913F912F910F9038
:0C0170000FBE0F901F901895F894FFCF61
:00000001FF
